:020000040800F2
:100000000015002045010008330300082B030008F9
:100010002F030008B9010008BD030008000000001C
:100020000000000000000000000000005F03000866
:1000300029030008000000005D03000861030008B8
:100040005F0100085F0100085F0100085F01000810
:100050005F0100085F0100085F0100085F01000800
:100060005F0100085F0100085F0100085F010008F0
:100070005F0100085F010008BD0100085F01000882
:100080005F010008650200085F0100085F010008C9
:100090005F0100085F0100085F0100085F010008C0
:1000A0005F0100085F0100085F0100085F010008B0
:1000B0005F0100085F0100085F0100085F010008A0
:1000C0005F0100085F0100085F0100085F01000890
:1000D0005F0100085F0100085F0100085F01000880
:1000E0005F0100085F0100085F0100085F01000870
:1000F0005F0100085F0100085F0100085F01000860
:100100005F0100085F0100085F0100085F0100084F
:100110005F0100085F0100085F0100085F0100083F
:100120005F0100085F0100085F0100085F0100082F
:10013000DFF80CD000F02EF800480047310C000822
:10014000001500200648804706480047FEE7FEE706
:10015000FEE7FEE7FEE7FEE7FEE7FEE7FEE7FEE777
:100160006D0300083101000830B50B460146002040
:100170002022012409E021FA02F59D4205D303FA69
:1001800002F5491B04FA02F52844151EA2F10102EA
:10019000F1DC30BD064C074D06E0E06840F001039D
:1001A00094E8070098471034AC42F6D3FFF7C4FF39
:1001B0006C1200088C12000800BFFEE738B500255D
:1001C000002402220321244800F0ABFA002840D08A
:1001D00001220321204800F09CFA2048C0681F49F2
:1001E000098845181D4800881C494988884209DA51
:1001F0001A48408819490988441A184840881749FC
:10020000088017E01548008814494988884207DDAE
:1002100012480088C0F5806400201049088009E079
:100220000E4800880D494988884203D100200B49B7
:10023000087438BD54B10120084908742346084A9F
:1002400003210548009500F055F802E0002003491D
:10025000087400BFEDE70000000002409C00002091
:10026000C400002038B500250024022206211E48C3
:1002700000F057FA002835D0012206211A4800F074
:1002800048FA1A48C068194909884518174800886B
:1002900016494988884209DA144840881349098870
:1002A000441A12484088114908800CE00F48008821
:1002B0000E494988884206DD0C480088C0F58064F4
:1002C00000200A49088054B10120084908742346D7
:1002D000074A06210448009500F00CF802E00020CF
:1002E0000249087438BD000000000240B000002040
:1002F000C40000202DE9F04106460F4614461D4675
:10030000DDF818803946304600F03AF92561C4F826
:10031000088022463946304600F064F939463046B6
:1003200000F047F9BDE8F081704700BFFEE700BF6D
:10033000FEE7704710B5002807DA0A07140E054AD1
:1003400000F00F031B1FD45403E00A07130E024AE8
:10035000135410BD18ED00E000E400E07047704752
:1003600010B500F047FC00F0FFF810BD10B51048C4
:10037000006840F470000E4908600E48006840F0C4
:1003800001000C49086000204860C8620846006807
:1003900009490840074908604FF41F008860084673
:1003A000006820F48020086000F07CFE10BD000092
:1003B00088ED00E000100240FFFFF6FE00BFFEE700
:1003C0000FB4054B10B503A9044A029800F018F8C1
:1003D00010BC5DF814FB00008108000898000020A4
:1003E00002E008C8121F08C1002AFAD170477047FE
:1003F000002001E001C1121F002AFBD1704700005C
:100400002DE9FF4F89B09B460446002506E02528CC
:100410000BD05A460B999047641C6D1C207800281D
:10042000F5D10DB02846BDE8F08F0027B84601226F
:10043000474900E0074314F8013F203B02FA03F06C
:100440000842F7D120782E2819D114F8010F47F06F
:1004500004072A280ED06FF02F022078A0F1300177
:1004600009290CD808EB880102EB410100EB0108D7
:10047000641CF2E70A98641C50F8048B0A902078F8
:100480000028CED0642808D0692806D075281ED050
:100490005A460B9990476D1C58E00A994FF00A098B
:1004A00001C90A91002802DA40422D2102E03905F3
:1004B00004D52B218DF82010012103E0F90704D089
:1004C0002021F7E78A4608AE0DE00021FAE70A99F5
:1004D0004FF00A0901C90A91F7E74946FFF744FEC0
:1004E000303106F8011D0028F7D1ADEB060000F110
:1004F0002009780701D44FF00108C84502DDA8EBB8
:10050000090000E000208046002706E008A85A46BF
:10051000C05D0B9990476D1C7F1C5745F6DB04E0CE
:1005200030205A460B9990476D1CB8F10001A8F194
:100530000108F5DC05E016F8010B5A460B999047C7
:100540006D1CB9F10001A9F10109F4DC641C65E737
:10055000092801000349086000BF02490968002911
:10056000FBD17047040000200448006820B1034814
:100570000068401E01490860704700000400002028
:1005800070B505460C462146284600F00BF908B91F
:1005900000BFFEE704EB8400810005F1080040582D
:1005A00020F0010104EB8400820005F10800815075
:1005B00070BD70B505460C462146284600F0F2F89D
:1005C00008B900BFFEE704EB8400810005F10800D4
:1005D000405840F0010104EB8400820005F108005E
:1005E000815070BD2DE9F04104460D46164629465E
:1005F000204600F0D7F808B900BFFEE705EB8500FC
:10060000820004F110003168815005EB8500820002
:1006100004F11400B1688150308A81B205EB850085
:10062000820004F10C00815005EB8500810004F18B
:100630000800475827F47C57F168706808437169CF
:100640000843074305EB8500810004F1080047508B
:10065000307E01280ED105EB8500810004F10800F1
:10066000405840F0400105EB8500820004F108008D
:1006700081500DE005EB8500810004F10800405831
:1006800020F0400105EB8500820004F10800815054
:10069000707E01280ED105EB8500810004F1080071
:1006A000405840F0800105EB8500820004F108000D
:1006B00081500DE005EB8500810004F108004058F1
:1006C00020F0800105EB8500820004F108008150D4
:1006D000B07E70B905EB8500810004F10800405838
:1006E00020F0100105EB8500820004F10800815024
:1006F0000DE005EB8500810004F10800405840F052
:10070000100105EB8500820004F108008150BDE86E
:10071000F08110B543688C0002FA04F4234343606F
:1007200010BD70B5034600BF00BF022A04D0042AE2
:1007300011D0082A2DD11DE018688E0002FA06F6A5
:1007400000EA060501EB8100860003F108008059EC
:1007500000F002041FE018688E0002FA06F600EAB4
:10076000060501EB8100860003F10800805900F0C6
:10077000040410E018688E0002FA06F600EA060586
:1007800001EB8100860003F10800805900F00804A5
:1007900001E000BFFEE700BF15B10CB1012070BD44
:1007A0000020FCE702460120034B9A4202D10429B3
:1007B00000DD0020704700000004024010B52C4B03
:1007C0001B6883432A4C2360231D1B688343241D1D
:1007D0002360231D1B688343241D2360231D1B6886
:1007E0008343241D236011B101290ED105E0204B64
:1007F0001B6803431E4C236008E01D4B1B1D1B6838
:1008000003431B4C241D236000E000BF00BF22B146
:10081000012A0FD0022A27D119E0154B08331B6893
:100820000343134C08342360231D1B688343241D9A
:1008300023601AE00E4B08331B6883430C4C0834CA
:100840002360231D1B680343241D23600DE0084B18
:1008500008331B680343064C08342360231D1B68C0
:100860000343241D236000E000BF00BF10BD000053
:100870000004014001490860704700001404014071
:1008800070B504460D46E1B2054800F07FFC00BF9C
:100890000721034800F0CBFC0028F9D0204670BDAA
:1008A0000038014070B5054600241D48854200D13E
:1008B00003E01C48854200D101241B4931F8140093
:1008C00000F036FB194931F8140000F031FB1849EB
:1008D00051F82430174951F824000322182100F060
:1008E00023F9154951F82430124951F82400032204
:1008F000042100F019F9284600F04CFC4FF4E131D6
:10090000284600F0FBFB0421284600F09FFC08214C
:10091000284600F0A3FC284600F084FC70BD0000CF
:100920000038014000440040480000202C00002016
:1009300030000020400000203800002070B5044640
:100940000D46174931F8140000F0F2FA4FF4C06078
:1009500000F0EEFA134951F82430134951F82400FD
:100960000322042100F0E0F8012D17D10F49085DA2
:100970000022022100F0C4F90D4A115D0D4A105DFC
:1009800000F086F80C4951F8240001220021FFF7FD
:1009900015FF094951F82400FFF76CFF70BD0000F6
:1009A0007400002064000020540000209400002007
:1009B000900000208C0000207C00002010B5044630
:1009C000044A52F82410044A52F8240000F00AF9AC
:1009D00010BD0000640000205400002010B5044643
:1009E0000B4931F8140000F0A3FA0A4951F82430F9
:1009F000094951F824000322102100F095F8054818
:100A000050F82400044951F82410486110BD00003A
:100A10004C0000201C0000200C000020034951F86D
:100A20002010034A52F82020516170471C0000201A
:100A30000C000020034951F82010034A52F82020EE
:100A4000116170471C0000200C00002070B50446A6
:100A50000A4A52F824100A4A52F8240000F0C2F858
:100A6000C0F10100C5B2054A52F82410044A52F8F8
:100A700024002A4600F006F870BD00001C0000208B
:100A80000C0000200AB1016100E0416170470000E4
:100A900010B500228B071C0F0F2303FA04F2042960
:100AA0000EDA204B9B6893431E4CA36023469B6841
:100AB0008C07240F00FA04F423431A4CA3602FE0A0
:100AC00008290EDA174BDB689343164CE360234684
:100AD000DB688C07240F00FA04F42343114CE36015
:100AE0001EE00C290EDA0F4B1B6993430D4C23615A
:100AF00023461B698C07240F00FA04F42343094C96
:100B000023610DE0074B5B699343064C6361234609
:100B10005B698C07240F00FA04F42343014C6361E2
:100B200010BD000000000140F0B504461646002547
:100B3000002201F00F0501F0100747B1042E05D186
:100B400045F00305E76B1F43E76300E035430020F2
:100B50001EE0012787401F40C7B122684FEA800C82
:100B60000F2707FA0CF7BA43870005FA07F73A434D
:100B7000282904D1012787401F40676105E04829E3
:100B800003D1012787401F4027612260471CB8B26C
:100B90000828DED3082022E0012787401F40E7B164
:100BA0006268A0F108074FEA870C0F2707FA0CF7D5
:100BB000BA43A0F10807BF0005FA07F73A4328290E
:100BC00004D1012787401F40676105E0482903D110
:100BD000012787401F4027616260471CB8B2102878
:100BE000DAD3F0BD02469068084008B10120704792
:100BF0000020FCE710B50D48006888B10B4800687C
:100C0000B0F5FA7F03D20020FFF714FF02E00020C6
:100C1000FFF704FF05480068401E0449086003E030
:100C20004FF47A700149086010BD000000000020F8
:100C300000F03CFA0020FFF7D1FE0120FFF7CEFEC6
:100C40000220FFF7CBFE1D48FFF72CFE00210846CF
:100C5000FFF774FE002000F0BFF80446214618A0FC
:100C6000FFF7AEFB012000F0B7F80446214618A0BC
:100C7000FFF7A6FB022000F0AFF80446214618A0BB
:100C8000FFF79EFB032000F0A7F80446214618A0BA
:100C9000FFF796FB10E00020FFF790FE60B90120FF
:100CA000FFF7C8FE4FF4FA70FFF754FC0120FFF77E
:100CB000B5FE0220FFF7CAFEEDE700000038014054
:100CC0000D0A434B5F53595320697320256400007C
:100CD0000D0A434B5F4148422069732025640000A0
:100CE0000D0A434B5F415042312069732025640057
:100CF0000D0A434B5F415042322069732025640046
:100D00002DE9F04103460D46164600240027A04673
:100D10002A48006800F4E060B0F5E06F03D100BF3E
:100D20004FF0040830E02548006800F4E060B0F5BA
:100D3000C06F03D101274FF0030825E01F4800686A
:100D400000F4E060B0F5A06F02D10227B8461BE0C6
:100D50001A48006800F4E060B0F5806F03D1032703
:100D60004FF0010810E01548006800F4E060B0F5AD
:100D7000407F03D104274FF0000805E04FF4A06046
:100D800000F020F80227B846C7F1040005FA00F485
:100D9000C8F104010F20C840304004432401084832
:100DA000C45403F01F01012088405911890001F14A
:100DB000E021C1F80001BDE8F08100000CED00E089
:100DC00000E400E002490143024A1160704700005C
:100DD0000000FA050CED00E02DE9F04F8CB007465D
:100DE00000200A904AA090E8004CC068CDE905BEFA
:100DF000CDF810A007900FF21C1ADAE9000ACDE92D
:100E0000020A0FF2101ADAE9000ACDE9000A444892
:100E10004068C0F381000B900B9820B1012804D0EA
:100E200002283FD103E03F4A3EE03E4A3CE03C48D6
:100E3000406800F4803CBCF5803F12D13848C06A5D
:100E400000F08048B8F1000F01D1364C00E0364C7C
:100E50003348406800F40039B9F5003F02D1334C03
:100E600000E0324C2E484068C0F383412C48406873
:100E700000F0006008B141F010012948406800F01E
:100E8000804008B141F020010F2901D2891C06E001
:100E90000F2903D33E2901D8491C00E03F2104FB60
:100EA00001F201E01F4A00BF00BF1D484068C0F3C7
:100EB000031504A8465D22FA06F319484068C0F3FA
:100EC000022502A8465D23FA06F0099014484068FE
:100ED000C0F3C2251DF8056023FA06F0089037B16B
:100EE000012F06D0022F06D0032F0AD106E00A9266
:100EF00008E00A9306E009980A9003E008980A902F
:100F000000E000BF00BF0A980CB0BDE8F08F000001
:100F100000000000000000000102030406070809A9
:100F20000010024000127A00006CDC0200093D0053
:100F3000064A02EB9011096800F01F0301229A4053
:100F40001143024B03EB90121160704700100240F6
:100F5000064A02EB9011096800F01F0301229A4033
:100F60009143024B03EB9012116070470010024056
:100F7000064A02EB9011096800F01F0301229A4013
:100F80001143024B03EB90121160704700100240B6
:100F9000002000213F4A126842F480323D4B1A6023
:100FA00000BF401C3B4A126802F4003119B94FF6E9
:100FB000FF729042F5D1374A126802F400320AB942
:100FC00000BFFEE7334AD26942F08052314BDA610A
:100FD000314A126842F440422F4B1A602D4A52683F
:100FE0002C4B5A601A4652685A601A46526842F4AC
:100FF00080625A601A46526822F440325A601A4699
:10100000526842F440325A601A465268234B1A40E2
:10101000204B5A601A465268214B1A431D4B5A60A6
:101020001A46126842F080721A6000BF194A1268AC
:1010300002F00072002AF9D0174A126842F4803296
:10104000154B1A6000BF144A526802F48032002A1D
:10105000F9D0114A126842F400320F4B1A6000BFF7
:101060000D4A526802F40032002AF9D0094A526847
:1010700022F00302074B5A601A46526842F00202FD
:101080005A6000BF034A526802F00802002AF9D0F1
:10109000704700000010024000700040FFFFC3B71F
:1010A0000000340810B5FFF773FF10BD10B51248EB
:1010B00000684FF47A71B0FBF1F4601EB0F1807FEC
:1010C00001D301200FE0601E4FF0E02148610F21A5
:1010D0004FF0FF30FFF72EF900204FF0E02188613C
:1010E00007200861002008B100BFFEE70021481E6C
:1010F000FFF720F910BD0000080000202DE9F0479F
:1011000004460D460027B846B94600261D49601A18
:101110008C421CD006DC1C48204470B1B0F5806FB6
:101120001FD10FE0B0F5806F16D0B0F56C4F18D11D
:101130000320FFF751FE074614E00220FFF74CFEA4
:1011400007460FE00220FFF747FE07460AE00220AD
:10115000FFF742FE074605E00220FFF73DFE074687
:1011600000E000BF00BF07EB5500B0FBF5F64FF6FF
:10117000F07006EA000806F00F0948EA0900A060CE
:10118000BDE8F087004C004000BCFFBFC1F308027F
:101190004260704710B504462049601A8C4228D03E
:1011A00006DC1F48204490B1B0F5806F33D117E0C2
:1011B000B0F5806F26D0B0F56C4F2CD140F20E30D8
:1011C000FFF7D6FE40F20E30FFF7C2FE24E040F2F9
:1011D0001140FFF7CDFE40F21140FFF7B9FE1BE0D2
:1011E00040F21240FFF7C4FE40F21240FFF7B0FE9B
:1011F00012E040F21340FFF7BBFE40F21340FFF74E
:10120000A7FE09E040F21440FFF7B2FE40F214409E
:10121000FFF79EFE00E000BF00BF10BD004C004085
:1012200000BCFFBFC16841F40051C160704710B5F8
:10123000024602EB9110006801F01F040123A34055
:10124000184008B1012010BD0020FCE70A4600212B
:10125000C16821F004011143C16070470A460021B2
:10126000C16821F008011143C16070478C12000869
:10127000000000209C000000E00300082813000884
:101280009C00002064140000F0030008000000002F
:1012900000000000000E2707001C0140001C014058
:1012A000001C0140001C0140010000000200000081
:1012B00004000000080000000E06110700020000F4
:1012C00004000000000400000800000000080140C5
:1012D0000008014002060206070607060706070681
:1012E0000008014000100140001C0140001C0140AA
:1012F000010000000020000020000000100000009D
:101300000206040607060706010000000020000090
:10131000200000001000000000020505000D05047B
:081320000628170A0000000076
:0400000508000131BD
:00000001FF
