:020000040800F2
:100000000015002045010008470800083F080008C7
:1000100043080008CD060008D108000800000000D1
:10002000000000000000000000000000730800084D
:100030003D0800080000000071080008750800086D
:100040005F0100085F0100085F0100085F01000810
:100050005F0100085F0100085F0100085F01000800
:100060005F0100085F0100085F0100085F010008F0
:10007000D10600085F010008610700085F01000861
:100080005F0100085F0100085F0100085F010008D0
:100090005F0100085F0100085F0100085F010008C0
:1000A0005F0100085F0100085F0100085F010008B0
:1000B0005F0100085F0100085F0100085F010008A0
:1000C0005F0100085F0100085F0100085F01000890
:1000D0005F0100085F0100085F0100085F01000880
:1000E0005F0100085F0100085F0100085F01000870
:1000F0005F0100085F0100085F0100085F01000860
:100100005F0100085F0100085F0100085F0100084F
:100110005F0100085F0100085F0100085F0100083F
:100120005F0100085F0100085F0100085F0100082F
:10013000DFF80CD000F02AFA00480047111600083A
:10014000001500200648804706480047FEE7FEE706
:10015000FEE7FEE7FEE7FEE7FEE7FEE7FEE7FEE777
:10016000810800083101000800F0004230F0004032
:100170000AD0C10D01F56071C0F3160042EA0151C9
:10018000C20840071143704700200146704730B550
:100190000B46014600202022012409E021FA02F545
:1001A0009D4205D303FA02F5491B04FA02F52844DF
:1001B000151EA2F10102F1DC30BD2DE9F05F05460C
:1001C000002092469B4688460646814640241BE016
:1001D000284641464746224600F0F9F953465A461A
:1001E000C01A914110D311461846224600F0E0F99A
:1001F0002D1A67EB01084F4622460120002100F02E
:10020000D7F917EB00094E41201EA4F10104DFDCF1
:10021000484631462A464346BDE8F09F2DE9FE4F49
:10022000804681EA0300C00F0C46009021F0004197
:1002300023F00045B8EB0200A94105D24046214613
:1002400090461C460B46024623F00040104347D020
:10025000270DC7F30A00C3F30A510290401A019018
:1002600040286BDAC3F3130040F4801B00989246D9
:1002700020B10023D2EB030A63EB0B0B0198594624
:10028000C0F14002504600F093F906460D46504634
:100290005946019A00F0ABF910EB080061410024C7
:1002A00087EA115284EAE7731A4340D0009A62B396
:1002B000019A012A4FEA075215DC001B61EB02018B
:1002C0004FF0004202EA0752CDE90042001C41F51E
:1002D000801132462B4600F0ABF903B0BDE8F08F39
:1002E00040462146F9E7001B61EB0201001C41F585
:1002F000801300185B412018A2F5001747EB03019B
:1003000040EAD570B6196D4111E06D084FEA360626
:1003100045EAC0754FEA0752001B61EB0201001C61
:1003200041F5801149084FEA300000195141324629
:100330002B4603B0BDE8F04F00F06BB900980122E6
:1003400040000023D0EB020263EBE07300982146EB
:100350004FEAE074B8EB000061EB0401E9E783F0D9
:1003600000435BE781F0004158E72DE9FE4F81EA49
:10037000030404F0004421F0004100944FF0000B0E
:1003800023F0004350EA01045ED052EA03045BD03C
:10039000C3F30A54C1F30A552C44A4F2F334019474
:1003A000A0FB0254C1F3130141F48011C3F3130302
:1003B00043F4801301FB024400FB034E840A970AB6
:1003C00044EA815447EA8357A4FB076802958D0AE3
:1003D00005FB07854FEA932C04FB0C542705029D6F
:1003E0004FEA065847EA1637B5EB08056EEB070CDF
:1003F000870E920E47EA811742EA8312A7FB020199
:10040000B6EB0B0164EB00042B0D43EA0C335E18D2
:1004100044EB1C50DA465146E7FB0201C5F31304D6
:100420004FEA0B3343EA14534FEA0432019C43EA88
:100430000603A4F10C040294009CCDE900B400F082
:10044000F7F803B0BDE8F08F00200146F9E72DE989
:10045000F04D81EA030404F0004B21F000451446FE
:100460004FF0000A23F0004150EA050220D054EA80
:1004700001021DD0C5F30A570246C5F31303C1F3A9
:100480001300C1F30A5640F4801543F48013A7EB20
:100490000608101BD64608F2FD3873EB050002D3A0
:1004A00008F1010801E092185B41B8F1000F03DA8E
:1004B00000200146BDE8F08D00204FF48011064673
:1004C00084460EE0171B73EB050705D3121B63EB85
:1004D000050306434CEA010C49084FEA3000921824
:1004E0005B4150EA0107EDD152EA030012D082EAE3
:1004F000040083EA0501084305D0101BAB4106D276
:100500000122002306E000224FF0004302E06FF0DA
:10051000010253101AEB06004CEB085110EB0A00D5
:1005200041EB0B01BDE8F04D00F073B8C1F30A5286
:10053000C1F3130140F2FF3341F480119A4202DA11
:1005400000200146704740F233439A42A2F2334200
:1005500002DC524200F03BB800F02AB830B5041E6D
:1005600071F1000404DB4FF00044404264EB0101F0
:10057000141E73F1000405DB1C464FF00043524289
:1005800063EB0403994208BF904230BD064C074D0F
:1005900006E0E06840F0010394E807009847103453
:1005A000AC42F6D3FFF7C8FD301A0008501A000815
:1005B000202A04DB203A00FA02F100207047914023
:1005C000C2F1200320FA03F3194390407047202A18
:1005D00004DB203A21FA02F00021704721FA02F3ED
:1005E000D040C2F120029140084319467047202AAA
:1005F00006DBCB17203A41FA02F043EAE07306E04B
:1006000041FA02F3D040C2F120029140084319465A
:10061000704710B5141E73F1000408DA401C41F154
:10062000000192185B411A4301D120F0010010BD76
:100630002DE9F04D92469B4611B1B1FA81F202E0EC
:10064000B0FA80F220329046FFF7B2FF04460F4620
:1006500040EA0A0041EA0B0153465A46084313D0C8
:10066000114653EA010019D0C8F140025046FFF785
:10067000AEFF05460E46504659464246FFF798FFE4
:10068000084305D0012004E020463946BDE8F08D3E
:100690000020054346EAE0762C4337430A98630579
:1006A000E40AA0EB08000022FD0A44EA47540A309D
:1006B00002D500200146E9E7010510196941DDE98D
:1006C000084500196941BDE8F04DA2E700BFFEE70B
:1006D00038B500250024022201211E4800F04BFEFF
:1006E000002835D0012211461A4800F03CFE1A4875
:1006F000C06819490988451817480088164949886B
:10070000884209DA1448408813490988441A124873
:100710004088114908800CE00F4800880E4949883C
:10072000884206DD0C480088C0F5806400200A4934
:10073000088054B10120084908742346074A012162
:100740000448009500F060F802E0002002490874B7
:1007500038BD000000000240B0000020E000002092
:1007600038B50025002402220321244800F003FEAE
:10077000002840D001220321204800F0F4FD204849
:10078000C0681F49098845181D4800881C494988C8
:10079000884209DA1A48408819490988441A1848D1
:1007A00040881749088017E015480088144949888F
:1007B000884207DD12480088C0F580640020104997
:1007C000088009E00E4800880D494988884203D115
:1007D00000200B49087438BD54B101200849087441
:1007E0002346084A03210548009500F00DF802E071
:1007F00000200349087400BFEDE70000000002403C
:100800009C000020C40000202DE9F04106460F4660
:1008100014461D46DDF818803946304600F0DAFCF3
:100820002561C4F8088022463946304600F004FDB0
:100830003946304600F0E7FCBDE8F081704700BF64
:10084000FEE700BFFEE7704710B5002807DA0A0789
:10085000140E054A00F00F031B1FD45403E00A07CF
:10086000130E024A135410BD18ED00E000E400E03E
:100870007047704710B500F0ADFE00F09FFC10BD52
:1008800010B51048006840F470000E4908600E482A
:10089000006840F001000C49086000204860C86210
:1008A0000846006809490840074908604FF41F00DE
:1008B00088600846006820F48020086001F078F81D
:1008C00010BD000088ED00E000100240FFFFF6FEC2
:1008D00000BFFEE70FB4054B10B503A9044A029808
:1008E00000F0CAF810BC5DF814FB000011140008F9
:1008F0009800002002E008C8121F08C1002AFAD19F
:1009000070477047002001E001C1121F002AFBD18F
:10091000704700002DE9FF5FDDE90220010DDDF8E1
:1009200038B0024318D044F61050A1F2FF314143D1
:100930000D140F98012820D0A5EB0B00401C5FEA96
:10094000000A4FF00004474EDFF81C91A0465046C5
:1009500016D5CAF1000728E00F98012443A2012808
:1009600008D0002100980F9BC0E90021C0E9024394
:10097000BDE8FF9F6FEA0B01F4E7CBF10000DEE773
:10098000074612E0F80707D022463346404649465C
:10099000FFF7EBFC8046894622463346104619464F
:1009A000FFF7E3FC04460E467F10002FEAD1DDE995
:1009B0000201BAF1000F42464B4602DAFFF7D5FCBE
:1009C00001E0FFF744FD04460E460022284BFFF7E6
:1009D000C5FD03D84FF0FF30014607E00022254B4C
:1009E00020463146FFF71AFCFFF7A0FD102409E06E
:1009F000002C0ADB0A220023FFF7DFFB019B3032C9
:100A00001A55641E50EA0102F2D1641C019AC4F125
:100A1000110314440F9A012A03D0012208430DD177
:100A20000AE0084304D000204FF0110B0F9080E73C
:100A3000A3EB0B056D1E0DE05B4504DD4FF00002DE
:100A400005F1010504E003DA4FF00002A5F101050C
:100A5000002AECD000980F99C0E90231C0E90045A6
:100A600086E70000000024400000F03F3000000056
:100A70000000F0430000E03F2DE9FF4F95B09B469A
:100A80008946064600250FE2252877D1002427460F
:100A9000F84A0121059400E0044316F8013F203B89
:100AA00001FA03F01042F7D130782A2811D06FF004
:100AB0002F033078A0F13002092A16D8059A44F0A5
:100AC000020402EB820203EB42021044761C059002
:100AD000EFE759F8042B0592002A03DA504244F458
:100AE0000054059044F00204761C30782E2816D16C
:100AF00016F8010F44F004042A280DD06FF02F02DD
:100B00003078A0F13003092B09D807EB870302EBFB
:100B10004303C718761CF3E759F8047B761C30783A
:100B20006C280FD006DC4C2817D068280DD06A2816
:100B300014D104E0742810D07A280FD10DE044F4C9
:100B400000140AE044F4801401E044F44014727884
:100B5000824202D104F58014761C761C3078662817
:100B60000BD013DC582877D009DC002875D0452835
:100B7000F6D04628F4D047281AD19DE118E0632822
:100B800035D0642879D0652812D195E1702873D0CA
:100B900008DC6728F1D069286FD06E280DD06F2847
:100BA00006D1B5E073282CD0752875D0782874D07C
:100BB0005A46179990476D1C75E1C4F302500228FC
:100BC00009D003280DD0D9F8001004280DD00D60ED
:100BD00009F1040967E1D9F80010EA17C1E90052E8
:100BE000F6E7D9F800100D80F2E70D70F0E719F87C
:100BF000041B8DF8001000208DF80100EA4601204A
:100C000003E059F804AB4FF0FF3061074FF00001EB
:100C100002D40DE008F101018846B9420FDA80459F
:100C2000F8DB1AF808100029F4D108E008F10101F6
:100C300088468142FADB1AF808100029F6D1059897
:100C40005B46A0EB080721463846179A00F094FA55
:100C5000284400EB080507E04DE029E10DE01AF813
:100C6000010B5A4617999047B8F10108F7D25B4635
:100C700021463846179A13E142E00A220092C4F353
:100C800002524FF0000A022A08D059F804CB032A76
:100C90004FEAEC710AD00DE029E02AE009F10701E2
:100CA00021F00702F2E802C1914609E00FFA8CFC3C
:100CB0004FEAEC71042A03D14FFA8CFC4FEAEC7135
:100CC000002907DA0A460021DCF1000C61EB020181
:100CD0002D2202E0220504D52B228DF804200122CA
:100CE00003E0E20701D02022F7E7904659E00A210D
:100CF00002E010220DE010214FF0000A00910BE0FD
:100D000010224FF0000A44F004040827009203E088
:100D100008224FF0000A0092C4F30252022A05D0C2
:100D200059F804CB0021032A08D009E009F1070192
:100D300021F00702F2E802C1914605E01FFA8CFC9F
:100D4000042A01D10CF0FF0C4FF00008220728D52F
:100D5000702806D0009B83F0100353EA0A0305D0E5
:100D60000EE040228DF80420012208E05CEA010236
:100D700006D030228DF804208DF80500022290461E
:100D8000009B83F0080353EA0A030AD15CEA0102DC
:100D900001D1620705D530228DF804204FF00108FB
:100DA0007F1E582804D034A003900EA802900DE0B6
:100DB00036A0F9E753466046009AFFF7FEF98446ED
:100DC0000398825C0298401E029002705CEA010067
:100DD000F0D1029806A9081A00F1200A600702D58E
:100DE00024F4803400E00127574502DDA7EB0A0018
:100DF00000E0002000EB0A01009005984144401AF1
:100E00000590E00306D45B462146179A059800F04A
:100E1000B3F90544002706E001A85A46C05D1799BA
:100E200090476D1C7F1C4745F6DBE0030CD55B4605
:100E30002146179A059800F09FF9054404E03020F8
:100E40005A46179990476D1C0099481E009000293A
:100E5000F5DC08E0029802995A460078491C029194
:100E6000179990476D1CBAF10001AAF1010AF1DC53
:100E700065E100000928010030313233343536375E
:100E800038396162636465660000000030313233D6
:100E90003435363738394142434445460000000076
:100EA00000F058F90544761C307800287FF4ECAD4A
:100EB00019B02846BDE8F08F620700D4062709F173
:100EC000070222F0070CFCE80223E14603F0004889
:100ED0005FEA080C02D00FF2702C0DE05FEA045CB0
:100EE00002D50FF2682C07E05FEAC47C02D00FF253
:100EF000602C01E0AFF2700C4FF0FF3823F000439C
:100F0000CDF850C065280CD006DC452809D046280D
:100F10001DD047283DD13DE0662818D067287ED1F6
:100F200038E00021112F01DB112000E0781CCDE911
:100F3000000106A90EA8FFF7EDFCDDE90F010E9AEE
:100F400003910021009207F1010A04914DE04FF056
:100F500000400097CDE9011006A90EA8FFF7DAFCC2
:100F6000DDE90F0203920E9B11990022DDF80CA01F
:100F70000093049211B9791C00EB010AB7EB0A0047
:100F800004D4C0F1FF3007F1010A0490AAEB070076
:100F9000019044E0012F00DA01270021112F01DD2B
:100FA000112000E03846CDE9000106A90EA8FFF7A0
:100FB000B1FCDDE90F010E9A03910021049100922A
:100FC000BA4621070CD40399514500DA8A46BAF192
:100FD000010F05DD009AAAF10101515C302908D00A
:100FE000B84202DA10F1040F06DA0121CDE901104E
:100FF00015E0AAF10101E9E7002805DC04990144A4
:101000000491AAEB000102E0411C514500DD8A4633
:101010000499401A401C01904FF0004002902007B4
:1010200004D40198504501DBCDF8048000208DF8F0
:101030004F0002980DF14F07B0F1004F25D02B2043
:101040000E9002984FF0020800280CDA40420290FD
:101050002D200E9007E00A210298FFF798F8303112
:10106000029007F8011DB8F10001A8F10108F2DCB7
:1010700002980028EFD1791E0E980870307800F0A1
:10108000200040F0450007F8020D12A8C01B00F137
:1010900007081498007800B1012000EB0A010198BC
:1010A00001EBE07105984144401A401E0590E003B1
:1010B00006D45B462146179A059800F05DF8054472
:1010C0001498007818B15A46179990476D1CE003A0
:1010D00024D55B462146179A059800F04DF8054443
:1010E0001CE00498002807DBDDE90301884203DDEA
:1010F0000098405C179901E0179930205A469047B4
:10110000049805F10105401C04900198401E0190CF
:1011100004D12E205A46179990476D1CBAF1000150
:10112000AAF1010ADDDC05E017F8010B5A46179910
:1011300090476D1CB8F10001A8F10108F4DC5B4692
:101140002146179A0598ABE62D0000002B00000001
:10115000200000002DE9F041044600251E461746F8
:10116000880404D405E039462020B0476D1C641E75
:10117000F9D52846BDE8F0812DE9F0410446002567
:101180001E469046C80301D5302700E0202788047A
:1011900004D505E041463846B0476D1C641EF9D5BC
:1011A0002846BDE8F08100000349086000BF0249FD
:1011B00009680029FBD1704704000020044800683A
:1011C00020B103480068401E0149086070470000D4
:1011D0000400002070B505460C462146284600F064
:1011E0000BF908B900BFFEE704EB8400810005F1AC
:1011F0000800405820F0010104EB8400820005F152
:101200000800815070BD70B505460C462146284641
:1012100000F0F2F808B900BFFEE704EB840081009B
:1012200005F10800405840F0010104EB8400820001
:1012300005F10800815070BD2DE9F04104460D46CE
:1012400016462946204600F0D7F808B900BFFEE749
:1012500005EB8500820004F110003168815005EB38
:101260008500820004F11400B1688150308A81B297
:1012700005EB8500820004F10C00815005EB850030
:10128000810004F10800475827F47C57F168706822
:10129000084371690843074305EB8500810004F1A9
:1012A00008004750307E01280ED105EB85008100F3
:1012B00004F10800405840F0400105EB8500820031
:1012C00004F1080081500DE005EB8500810004F178
:1012D0000800405820F0400105EB8500820004F131
:1012E00008008150707E01280ED105EB8500810039
:1012F00004F10800405840F0800105EB85008200B1
:1013000004F1080081500DE005EB8500810004F137
:101310000800405820F0800105EB8500820004F1B0
:1013200008008150B07E70B905EB8500810004F1A2
:101330000800405820F0100105EB8500820004F100
:10134000080081500DE005EB8500810004F10800E4
:10135000405840F0100105EB8500820004F10800C0
:101360008150BDE8F08110B543688C0002FA04F4A6
:101370002343436010BD70B5034600BF00BF022A7F
:1013800004D0042A11D0082A2DD11DE018688E003F
:1013900002FA06F600EA060501EB8100860003F179
:1013A0000800805900F002041FE018688E0002FA5D
:1013B00006F600EA060501EB8100860003F108004D
:1013C000805900F0040410E018688E0002FA06F656
:1013D00000EA060501EB8100860003F10800805950
:1013E00000F0080401E000BFFEE700BF15B10CB13A
:1013F000012070BD0020FCE702460120034B9A4209
:1014000002D1042900DD00207047000000040240E2
:1014100070B504460D46E1B2054800F0F5FA00BF8C
:101420000721034800F0F4FA0028F9D0204670BDE7
:101430000038014010B50446044A52F82410044A0A
:1014400052F8240000F0BDF810BD00006400002038
:101450005400002010B504460B4931F8140000F088
:101460000DFA0A4951F82430094951F824000322A1
:10147000102100F048F8054850F82400044951F8BC
:101480002410486110BD00004C0000201C0000200A
:101490000C000020034951F82010034A52F8202084
:1014A000516170471C0000200C000020034951F8D6
:1014B0002010034A52F82020116170471C000020C0
:1014C0000C00002070B504460A4A52F824100A4A5B
:1014D00052F8240000F075F8C0F10100C5B2054AC9
:1014E00052F82410044A52F824002A4600F006F864
:1014F00070BD00001C0000200C0000200AB101613A
:1015000000E041617047F0B5044616460025002210
:1015100001F00F0501F0100747B1042E05D145F089
:101520000305E76B1F43E76300E0354300201EE03F
:10153000012787401F40C7B122684FEA800C0F2760
:1015400007FA0CF7BA43870005FA07F73A43282948
:1015500004D1012787401F40676105E0482903D176
:10156000012787401F4027612260471CB8B2082826
:10157000DED3082022E0012787401F40E7B16268E0
:10158000A0F108074FEA870C0F2707FA0CF7BA43B8
:10159000A0F10807BF0005FA07F73A43282904D14C
:1015A000012787401F40676105E0482903D10127D3
:1015B00087401F4027616260471CB8B21028DAD309
:1015C000F0BD02469068084008B101207047002035
:1015D000FCE7000010B50D48006888B10B480068B2
:1015E000B0F5FA7F03D20020FFF760FF02E0002091
:1015F000FFF750FF05480068401E0449086003E0FB
:101600004FF47A700149086010BD0000000000200E
:101610002DED088B82B09FED2F0AF0EE408A00F08E
:10162000CBF90020FFF716FF0120FFF713FF002082
:1016300000F078F80446214627A0FFF74BF9012077
:1016400000F070F80446214627A0FFF743F9022076
:1016500000F068F80446214627A0FFF73BF9032075
:1016600000F060F80446214627A0FFF733F92FE089
:101670000020FFF7DFFE58BB0120FFF717FF4FF4F4
:10168000FA70FFF791FD0120FFF704FF0020FFF73C
:1016900019FF38EE880AB0EE408A38EE880AB0EEBC
:1016A000409A29EE080AB0EE409A19EE100AFEF7A9
:1016B0005BFD41EC1A0B18EE100AFEF755FD41ECEC
:1016C0001B0B8DED00AB53EC1B2B13A0FFF702F9A6
:1016D000CEE700006F12833A0D0A434B5F53595314
:1016E00020697320256400000D0A434B5F41484286
:1016F00020697320256400000D0A434B5F4150426E
:1017000031206973202564000D0A434B5F4150422C
:101710003220697320256400613D25662C623D25D9
:10172000660000002DE9F04F8CB0074600200A90BB
:101730004AA090E8004CC068CDE905BECDF810A0E5
:1017400007900FF21C1ADAE9000ACDE9020A0FF23B
:10175000101ADAE9000ACDE9000A44484068C0F3EB
:1017600081000B900B9820B1012804D002283FD1B2
:1017700003E03F4A3EE03E4A3CE03C48406800F41B
:10178000803CBCF5803F12D13848C06A00F08048E8
:10179000B8F1000F01D1364C00E0364C33484068B8
:1017A00000F40039B9F5003F02D1334C00E0324C6F
:1017B0002E484068C0F383412C48406800F0006028
:1017C00008B141F010012948406800F0804008B19C
:1017D00041F020010F2901D2891C06E00F2903D313
:1017E0003E2901D8491C00E03F2104FB01F201E041
:1017F0001F4A00BF00BF1D484068C0F3031504A87E
:10180000465D22FA06F319484068C0F3022502A893
:10181000465D23FA06F0099014484068C0F3C225DB
:101820001DF8056023FA06F0089037B1012F06D0A5
:10183000022F06D0032F0AD106E00A9208E00A938D
:1018400006E009980A9003E008980A9000E000BFBB
:1018500000BF0A980CB0BDE8F08F00000000000047
:1018600000000000010203040607080900100240FE
:1018700000127A00006CDC0200093D00064A02EB0F
:101880009011096800F01F0301229A401143024B96
:1018900003EB9012116070470010024000200021FD
:1018A0003F4A126842F480323D4B1A6000BF401C30
:1018B0003B4A126802F4003119B94FF6FF729042A8
:1018C000F5D1374A126802F400320AB900BFFEE7C8
:1018D000334AD26942F08052314BDA61314A1268A0
:1018E00042F440422F4B1A602D4A52682C4B5A60EA
:1018F0001A4652685A601A46526842F480625A6028
:101900001A46526822F440325A601A46526842F42B
:1019100040325A601A465268234B1A40204B5A6094
:101920001A465268214B1A431D4B5A601A461268D8
:1019300042F080721A6000BF194A126802F0007209
:10194000002AF9D0174A126842F48032154B1A6007
:1019500000BF144A526802F48032002AF9D0114ABA
:10196000126842F400320F4B1A6000BF0D4A5268F1
:1019700002F40032002AF9D0094A526822F0030228
:10198000074B5A601A46526842F002025A6000BF82
:10199000034A526802F00802002AF9D0704700009A
:1019A0000010024000700040FFFFC3B70000340881
:1019B00010B5FFF773FF10BD10B5124800684FF463
:1019C0007A71B0FBF1F4601EB0F1807F01D3012089
:1019D0000FE0601E4FF0E02148610F214FF0FF3013
:1019E000FEF732FF00204FF0E021886107200861F8
:1019F000002008B100BFFEE70021481EFEF724FFCB
:101A000010BD000008000020C1F3080242607047CA
:101A100010B5024602EB9110006801F01F0401238B
:101A2000A340184008B1012010BD0020FCE70000D1
:101A3000501A0008000000209C000000F408000874
:101A4000EC1A00089C00002064140000040900083F
:101A50000000000000000000000E270700100140F9
:101A600000100140001C0140001C0140002000004B
:101A70008000000004000000080000000E061107AE
:101A80000002000004000000000400000800000044
:101A90000008014000080140020602060406040690
:101AA000070607060008014000100140001C014025
:101AB000001C014001000000002000002000000088
:101AC00010000000020604060706070601000000D9
:101AD00000200000200000001000000000020505AA
:0C1AE000000D05040628170A0000000095
:0400000508000131BD
:00000001FF
